:100000000C944D010C94BD060C9496060C9475014D
:100010000C9475010C9475010C9475010C94750188
:100020000C9475010C9475010C9475010C94750178
:100030000C9475010C9475010C9475010C94750168
:100040000C944C060C9475010C940A070C94E4066D
:100050000C9475010C9475010C9475010C94750148
:100060000C9475010C947501000000000000005F05
:1000700000000007000700147F147F14242A7F2A41
:10008000122313086462364955225000050300000C
:10009000001C2241000041221C0014083E081408E4
:1000A000083E0808005030000008080808080060F2
:1000B00060000020100804023E5149453E00427F86
:1000C000400042615149462141454B311814127F8D
:1000D0001027454545393C4A494930017109050316
:1000E0003649494936064949291E0036360000007E
:1000F0005636000008142241001414141414004150
:100100002214080201510906324979413E7E11113B
:10011000117E7F494949363E414141227F4141227A
:100120001C7F494949417F090909013E4149497AF2
:100130007F0808087F00417F41002040413F017F48
:10014000081422417F404040407F020C027F7F0420
:1001500008107F3E4141413E7F090909063E415159
:10016000215E7F09192946464949493101017F012C
:10017000013F4040403F1F2040201F3F4038403F4C
:100180006314081463070870080761514945430068
:100190007F41410002040810200041417F00040219
:1001A0000102044040404040000102040020545439
:1001B00054787F48444438384444442038444448C0
:1001C0007F3854545418087E0901020C5252523E92
:1001D0007F0804047800447D40002040443D007FB7
:1001E0001028440000417F40007C041804787C08FB
:1001F00004047838444444387C1414140808141453
:10020000187C7C080404084854545420043F44409B
:10021000203C4040207C1C2040201C3C4030403C86
:1002200044281028440C5050503C4464544C440022
:100230000836410000007F00000041360800100829
:100240000810080000000000000000080002010083
:100250000003040700000000000000000000000090
:10026000250028002B0000000000240027002A00A1
:10027000040404040404040402020202020203034C
:100280000303030301020408102040800102040854
:1002900010200102040810203C0711241FBECFEFDC
:1002A000D8E0DEBFCDBF11E0A0E0B1E0E8E7F8E1C3
:1002B00002C005900D92A837B107D9F722E0A8E750
:1002C000B1E001C01D92AD37B207E1F711E0CDE416
:1002D000D1E004C02197FE010E94340CCC34D10738
:1002E000C9F70E947C070C943A0C0C94000090E033
:1002F000FC01EC57FD4F249180599D4FFC018491E6
:10030000882399F090E0880F991FFC01EA59FD4F6E
:10031000A591B491FC01E45AFD4F859194918FB75A
:10032000F894EC91E22BEC938FBF089590E0FC01E0
:10033000E85BFD4F2491FC01EC57FD4F3491FC012B
:10034000E059FD4FE491EE23C9F0222339F0233028
:1003500001F1A8F4213019F1223029F1F0E0EE0F7B
:10036000FF1FE45AFD4FA591B4918FB7F894EC911B
:10037000611126C030953E233C938FBF08952730EE
:10038000A9F02830C9F0243049F7809180008F7D92
:1003900003C0809180008F7780938000DFCF84B589
:1003A0008F7784BDDBCF84B58F7DFBCF8091B0008C
:1003B0008F778093B000D2CF8091B0008F7DF9CF3E
:1003C0003E2BDACF8E3008F08E5087708064809399
:1003D0007C0080917A00806480937A0080917A001A
:1003E00086FDFCCF809178009091790008953FB709
:1003F000F89480917D0190917E01A0917F01B09150
:10040000800126B5A89B05C02F3F19F00196A11DBC
:10041000B11D3FBFBA2FA92F982F8827BC01CD014E
:10042000620F711D811D911D42E0660F771F881FAD
:10043000991F4A95D1F708958F929F92AF92BF92DC
:10044000CF92DF92EF92FF924B015C010E94F70185
:100450006B017C010E94F7016C197D098E099F09CF
:10046000683E734081059105A8F321E0821A910846
:10047000A108B10888EEC80E83E0D81EE11CF11C6B
:1004800081149104A104B10429F7FF90EF90DF904B
:10049000CF90BF90AF909F908F9008950895AF92A6
:1004A000BF92CF92DF92EF92FF920F931F93CF9361
:1004B000DF936C017B018B01040F151FEB015E01C3
:1004C000AE18BF08C017D10759F06991D601ED9158
:1004D000FC910190F081E02DC6010995892B79F7F7
:1004E000C501DF91CF911F910F91FF90EF90DF90A9
:1004F000CF90BF90AF900895FC01538D448D252F70
:1005000030E0842F90E0821B930B541710F0CF96AD
:10051000089501970895FC01918D828D981761F0DF
:10052000A28DAE0FBF2FB11D5D968C91928D9F5FF6
:100530009F73928F90E008958FEF9FEF0895FC01D5
:10054000918D828D981731F0828DE80FF11D858D88
:1005500090E008958FEF9FEF0895FC01918D228D1B
:10056000892F90E0805C9F4F821B91098F739927A0
:10057000089581E991E00E94AD0221E0892B09F400
:1005800020E0822F089580E090E0892B29F00E94DE
:10059000B90281110C9400000895FC01A48DA80FEC
:1005A000B92FB11DA35ABF4F2C91848D90E00196B5
:1005B0008F739927848FA689B7892C93A089B189D5
:1005C0008C91837080648C93938D848D981306C076
:1005D0000288F389E02D80818F7D80830895EF92DA
:1005E000FF920F931F93CF93DF93EC0181E0888FED
:1005F0009B8D8C8D98131AC0E889F989808185FFBD
:1006000015C09FB7F894EE89FF896083E889F9895E
:1006100080818370806480839FBF81E090E0DF9160
:10062000CF911F910F91FF90EF900895F62E0B8DB3
:1006300010E00F5F1F4F0F731127E02E8C8D8E116E
:100640000CC00FB607FCFACFE889F989808185FFD5
:10065000F5CFCE010E94CD02F1CFEB8DEC0FFD2F37
:10066000F11DE35AFF4FF0829FB7F8940B8FEA8990
:10067000FB8980818062CFCFCF93DF93EC01888D9F
:100680008823B9F0AA89BB89E889F9898C9185FD0D
:1006900003C0808186FD0DC00FB607FCF7CF8C919B
:1006A00085FFF2CF808185FFEDCFCE010E94CD0284
:1006B000E9CFDF91CF910895089590E080E008950B
:1006C0008F929F92AF92BF92FF920F931F93CF93FF
:1006D000DF93C1E8D1E004E011E089909990A990FE
:1006E000B990F801F0800E5F1F4F20E030E040EA43
:1006F00051E4C501B4010E94670B181654F020E0C4
:1007000030E040EA51ECC501B4010E940F0A60E0FC
:1007100087FD61E08F2D0E949601F1E0C139DF076E
:10072000E1F6DF91CF911F910F91FF90BF90AF90B5
:100730009F908F900895EF92FF920F931F93CF9306
:10074000DF93EC01042F8E810E94960160E0888582
:100750000E949601FC80ED8018E0602F661F6627DE
:10076000661F8E2D0E949601000F61E08F2D0E9462
:10077000960160E08F2D0E949601115071F761E0A3
:100780008885DF91CF911F910F91FF90EF900C948E
:100790009601CF93DF93262FCEE2D2E06A850E94A6
:1007A000DE0B492F9C87822F90E06B8529E3629FA7
:1007B000612D1124669570E06F5F7F4F0E94EA0BF8
:1007C0008D87406860E0CE010E949B034D854064A8
:1007D00060E0CE01DF91CF910C949B03CF93DF9328
:1007E00060E080E00E94C903D0E0C0E0809139025F
:1007F00086958695869590913802899FC00111242F
:10080000C817D90740F440E061E08EE292E00E9410
:100810009B032196EBCF60E080E0DF91CF910C94B9
:10082000C9030C94EE03FB0101900020E9F7319716
:10083000AF01461B570BDC01ED91FC910280F38167
:10084000E02D09948F929F92AF92BF92EF92FF9208
:100850000F931F93CF93DF93CDB7DEB7A1970FB65A
:10086000F894DEBF0FBECDBF7C01FA01CB0119A207
:10087000223008F42AE08E010F5D1F4F822E912C4A
:10088000B12CA12CBF01A50194010E94FE0BF9011E
:10089000CA016A300CF5605DD8016E938D01232B7F
:1008A000242B252B79F790E080E0109721F0BD01F3
:1008B000C7010E941304A1960FB6F894DEBF0FBEC5
:1008C000CDBFDF91CF911F910F91FF90EF90BF901F
:1008D000AF909F908F900895695CDECF2F923F92EA
:1008E0004F925F926F927F928F929F92AF92BF9240
:1008F000CF92DF92EF92FF921F93CF93DF93EC01A1
:100900006A017B01722EAB019601CB01B6010E94F8
:10091000D90B62E371E0811126C046015701E894CA
:10092000B7F82FEF3FEF4FE75FE7C501B4010E9433
:10093000D90B81110CC02FEF3FEF4FE75FE7C501E7
:10094000B4010E940F0A66E371E0181664F02FEFFD
:100950003FEF4FE75FE4C701B6010E94670B18162F
:10096000B4F46AE371E0CE01DF91CF911F91FF9063
:10097000EF90DF90CF90BF90AF909F908F907F903F
:100980006F905F904F903F902F900C9413042FEF37
:100990003FEF4FE75FECC701B6010E940F0A87FDEA
:1009A000E0CF20E030E0A901C701B6010E940F0AA4
:1009B000312C212C87FF0DC0E881F9810190F08155
:1009C000E02D6DE2CE0109951C01F7FAF094F7F8DD
:1009D000F09410E060E070E080E09FE3711641F079
:1009E00020E030E040E251E40E94140A1F5FF6CF9D
:1009F000A70196010E94A3092B013C010E94860ACF
:100A00004B015C012AE0BC01A401CE010E9422043A
:100A10007C01E20CF31C1123E1F1C501B4010E9439
:100A2000B50A9B01AC01C301B2010E94A2094B01AE
:100A30005C01E881F9810190F081E02D6EE2CE0148
:100A40000995E80EF91E115020F120E030E040E257
:100A500051E4C501B4010E946C0B2B013C010E94C2
:100A6000860A4B01B12CA12C2AE0B501A401CE01CC
:100A70000E942204E80EF91EC501B4010E94B50AC5
:100A80009B01AC01C301B2010E94A2094B015C01B0
:100A9000DACFC701DF91CF911F91FF90EF90DF90E8
:100AA000CF90BF90AF909F908F907F906F905F900E
:100AB0004F903F902F900895CF93DF93BC0181E931
:100AC00091E00E9413046EE371E081E991E00E94DD
:100AD0001304C1E8D1E0499159916991799122E0DB
:100AE00081E991E00E946E046EE371E081E991E09A
:100AF0000E94130481E0C139D80769F7DF91CF91D3
:100B00000895CF92DF92EF92FF920F931F93CF93AE
:100B1000DF9300D000D01F92CDB7DEB767FD6BC06A
:100B20007C01862F90E0603208F455C0809725E064
:100B3000289FB001299F700D112468597F4F45E00F
:100B400050E0CE0101960E9499098E010F5F1F4F60
:100B5000680185E0C80ED11CF80141918F01F701B1
:100B600086858111409561E0C7010E949B030C15A9
:100B70001D0591F7F7014685419561E0C7010E9487
:100B80009B03F701848590E00696628570E00E94E1
:100B9000EA0B8487892B79F4858590E0019663853B
:100BA00029E3629F612D1124669570E06F5F7F4F8E
:100BB0000E94EA0B858781E090E00F900F900F90E4
:100BC0000F900F90DF91CF911F910F91FF90EF90B9
:100BD000DF90CF900895880F991FF701E80FF91F54
:100BE000078510890115110509F0B2CF45E050E0E5
:100BF00068E670E0A6CF90E080E0DFCFCF92DF9292
:100C0000EF92FF92CF93DF93EC0160E080E00E94CF
:100C1000C903BE018EE292E00E941304C1E8D1E054
:100C2000C12CD12C7601C3946C2D80E00E94C903A5
:100C300061E471E08EE292E00E9413042AE0B701C1
:100C4000A6018EE292E00E94220464E471E08EE24A
:100C500092E00E941304499159916991799122E09F
:100C60008EE292E00E946E0467E471E08EE292E010
:100C70000E9413048FEFC81AD80AE80AF80A85E020
:100C8000C816D104E104F10479F6DF91CF91FF9009
:100C9000EF90DF90CF9008951F920F920FB60F92B2
:100CA00011242F933F938F939F93AF93BF93809182
:100CB000790190917A01A0917B01B0917C013091F2
:100CC000780123E0230F2D3758F50196A11DB11DA2
:100CD000209378018093790190937A01A0937B010E
:100CE000B0937C0180917D0190917E01A0917F0164
:100CF000B09180010196A11DB11D80937D0190935B
:100D00007E01A0937F01B0938001BF91AF919F912D
:100D10008F913F912F910F900FBE0F901F901895BC
:100D200026E8230F0296A11DB11DD2CF1F920F926C
:100D30000FB60F9211242F933F934F935F936F93AE
:100D40007F938F939F93AF93BF93EF93FF93E09124
:100D50000201F09103010995FF91EF91BF91AF91CD
:100D60009F918F917F916F915F914F913F912F91C3
:100D70000F900FBE0F901F9018951F920F920FB6F5
:100D80000F9211242F933F934F935F936F937F9311
:100D90008F939F93AF93BF93EF93FF93E0910001E5
:100DA000F09101010995FF91EF91BF91AF919F9152
:100DB0008F917F916F915F914F913F912F910F9004
:100DC0000FBE0F901F9018951F920F920FB60F92A3
:100DD00011242F933F934F935F936F937F938F9340
:100DE0009F93AF93BF93EF93FF9381E991E00E94AC
:100DF000CD02FF91EF91BF91AF919F918F917F9124
:100E00006F915F914F913F912F910F900FBE0F9077
:100E10001F9018951F920F920FB60F9211242F93C7
:100E20008F939F93EF93FF93E091A101F091A20123
:100E30008081E091A701F091A80182FD1BC0908103
:100E40008091AA018F5F8F732091AB01821741F0CF
:100E5000E091AA01F0E0EF56FE4F958F8093AA0132
:100E6000FF91EF919F918F912F910F900FBE0F9057
:100E70001F9018958081F4CFE1E9F1E0138212828E
:100E800088EE93E0A0E0B0E084839583A683B783E7
:100E900088E191E09183808385EC90E09587848759
:100EA00084EC90E09787868780EC90E0918B808B34
:100EB00081EC90E0938B828B82EC90E0958B848B1D
:100EC00086EC90E0978B868B118E128E138E148E8B
:100ED000EEE2F2E0138212828AE291E09183808353
:100EE00083E0848384E0858385E0868386E087834E
:100EF00087E0808716860895CF93DF9300D01F92F6
:100F0000CDB7DEB7789484B5826084BD84B5816046
:100F100084BD85B5826085BD85B5816085BD8091C4
:100F20006E00816080936E0010928100809181003C
:100F30008260809381008091810081608093810034
:100F4000809180008160809380008091B1008460F6
:100F50008093B1008091B00081608093B000809157
:100F60007A00846080937A0080917A008260809316
:100F70007A0080917A00816080937A0080917A0073
:100F8000806880937A001092C100E091A101F091F5
:100F9000A20182E08083E0919D01F0919E01108288
:100FA000E0919F01F091A0018FEC80831092A90144
:100FB000E091A501F091A60186E08083E091A30174
:100FC000F091A401808180618083E091A301F09180
:100FD000A401808188608083E091A301F091A40145
:100FE000808180688083E091A301F091A4018081D9
:100FF0008F7D808388E00E94770189E00E947701DD
:101000008AE00E9477018BE00E94770184E580935B
:10101000380280E3809339021092370210923A022C
:1010200010923B02EDE3F2E080E4DF011D928A952D
:10103000E9F7809132020E947701809133020E9489
:101040007701809134020E947701809135020E94DD
:101050007701809136020E94770161E0809135022C
:101060000E94960161E0809136020E94960160E044
:10107000809135020E94960164E670E080E090E085
:101080000E941C0261E0809135020E94960141E2BB
:1010900060E08EE292E00E949B0343E160E08EE21A
:1010A00092E00E949B038091370242EC813039F438
:1010B00040EE60E08EE292E00E949B0345E060E03B
:1010C0008EE292E00E949B0340E260E08EE292E0BA
:1010D0000E949B0349E060E08EE292E00E949B0345
:1010E0000E94EE0348E060E08EE292E00E949B03E3
:1010F0004CE060E08EE292E00E949B0364E670E0C8
:1011000080E090E00E941C0240E860E08EE292E005
:101110000E949B0340E460E08EE292E00E949B0309
:101120000E94EE0360E081E00E94C9036AE471E07E
:101130008EE292E00E94130461E081E00E94C90304
:1011400062E571E08EE292E00E94130462E081E0C9
:101150000E94C90365E571E08EE292E00E941304EB
:1011600081E194E0909301018093000180916900F6
:101170008C7F816080936900E89A60ED77E080E081
:1011800090E00E941C0224E1E22E21E0F22E30E0E9
:10119000A32E30E0B32E83E10E94E201BC01990F3F
:1011A000880B990B0E94B70A20E030EC4FEF53E414
:1011B0000E940F0A87FF77C0ECE0F1E0FB83EA832F
:1011C00091E8C92E91E0D92EAA81BB81BC91B98347
:1011D000EA81FB813296FB83EA8388EE882E83E0E6
:1011E000982E612C712C00E010E089810E94E201B0
:1011F000BC01990F880B990B0E94B70A1B012C01A7
:101200009301A8010E94670B181614F431018201A2
:10121000F1E08F1A910849F720E030EC4FEF53E4EA
:10122000B301C8010E94A2092CE030E340E45DE371
:101230000E946C0B21E834E045E35FE30E946C0BF5
:10124000D6016D937D938D939D936D01EA81FB8112
:10125000EE16FF0609F0B8CF0E9460038FE591E01B
:101260000E94FE0582E10E94E201BC01990F880BF9
:10127000990B0E94B70A20E030EC4FEF53E40E9434
:10128000670B181624F488E691E00E945C05A1140F
:10129000B10409F480CF0E94B902882309F47BCFFE
:1012A0000E94000078CF2CE031E03B832A8301E8E4
:1012B00011E0AA81BB818C911296BB83AA830E9404
:1012C000E201BC01990F880B990B0E94B70A20E03C
:1012D00030EC4FEF53E40E94A2092CE030E340E4ED
:1012E0005DE30E946C0BF80161937193819391937C
:1012F0008F012A813B81E216F306D9F60E94600332
:1013000080E791E00E94FE0582E10E94E201BC01BB
:10131000990F880B990B0E94B70A20E030EC4FEF31
:1013200053E40E94670B18160CF0B1CF80E791E0F0
:10133000ACCFFB01DC0102C005900D924150504042
:10134000D8F708955058BB27AA270E94BA090C94D1
:101350002D0B0E941F0B38F00E94260B20F039F451
:101360009F3F19F426F40C941C0B0EF4E095E7FB58
:101370000C94160BE92F0E943E0B58F3BA17620724
:1013800073078407950720F079F4A6F50C94600B99
:101390000EF4E0950B2EBA2FA02D0B01B901900190
:1013A0000C01CA01A0011124FF27591B99F0593FD4
:1013B00050F4503E68F11A16F040A22F232F342F1C
:1013C0004427585FF3CF469537952795A795F0406A
:1013D0005395C9F77EF41F16BA0B620B730B840B7F
:1013E000BAF09150A1F0FF0FBB1F661F771F881F37
:1013F000C2F70EC0BA0F621F731F841F48F487958F
:1014000077956795B795F7959E3F08F0B0CF939580
:10141000880F08F09927EE0F9795879508950E94F9
:10142000F20A08F481E008950E94280A0C942D0B1A
:101430000E94260B58F00E941F0B40F029F45F3FDA
:1014400029F00C94160B51110C94610B0C941C0B8D
:101450000E943E0B68F39923B1F3552391F3951B3A
:10146000550BBB27AA2762177307840738F09F5FC5
:101470005F4F220F331F441FAA1FA9F335D00E2E32
:101480003AF0E0E832D091505040E695001CCAF79F
:101490002BD0FE2F29D0660F771F881FBB1F261762
:1014A00037074807AB07B0E809F0BB0B802DBF0139
:1014B000FF2793585F4F3AF09E3F510578F00C9408
:1014C000160B0C94610B5F3FE4F3983ED4F38695C2
:1014D00077956795B795F7959F5FC9F7880F911D29
:1014E0009695879597F90895E1E0660F771F881F15
:1014F000BB1F621773078407BA0720F0621B730BC8
:10150000840BBA0BEE1F88F7E09508950E94460BF6
:1015100088F09F5798F0B92F9927B751B0F0E1F0B4
:10152000660F771F881F991F1AF0BA95C9F714C064
:10153000B13091F00E94600BB1E008950C94600B03
:10154000672F782F8827B85F39F0B93FCCF386959D
:1015500077956795B395D9F73EF4909580957095FA
:1015600061957F4F8F4F9F4F0895E89409C097FB77
:101570003EF490958095709561957F4F8F4F9F4F6A
:101580009923A9F0F92F96E9BB279395F6958795AE
:1015900077956795B795F111F8CFFAF4BB0F11F471
:1015A00060FF1BC06F5F7F4F8F4F9F4F16C0882318
:1015B00011F096E911C0772321F09EE8872F762F4E
:1015C00005C0662371F096E8862F70E060E02AF08F
:1015D0009A95660F771F881FDAF7880F969587957B
:1015E00097F90895990F0008550FAA0BE0E8FEEF50
:1015F00016161706E807F907C0F012161306E407D7
:10160000F50798F0621B730B840B950B39F40A26CF
:1016100061F0232B242B252B21F408950A2609F4AD
:10162000A140A6958FEF811D811D089597F99F67B1
:1016300080E870E060E008959FEF80EC089500245A
:101640000A941616170618060906089500240A9427
:1016500012161306140605060895092E0394000CAD
:1016600011F4882352F0BB0F40F4BF2B11F460FF3C
:1016700004C06F5F7F4F8F4F9F4F089557FD905865
:10168000440F551F59F05F3F71F04795880F97FB46
:10169000991F61F09F3F79F0879508951216130600
:1016A0001406551FF2CF4695F1DF08C0161617062F
:1016B0001806991FF1CF8695710561050894089564
:1016C000E894BB2766277727CB0197F908950E94F6
:1016D000F20A08F48FEF08950E947F0B0C942D0BF3
:1016E0000E941F0B38F00E94260B20F0952311F06A
:1016F0000C94160B0C941C0B11240C94610B0E947F
:101700003E0B70F3959FC1F3950F50E0551F629FFC
:10171000F001729FBB27F00DB11D639FAA27F00D4A
:10172000B11DAA1F649F6627B00DA11D661F829F71
:101730002227B00DA11D621F739FB00DA11D621F56
:10174000839FA00D611D221F749F3327A00D611D73
:10175000231F849F600D211D822F762F6A2F112455
:101760009F5750409AF0F1F088234AF0EE0FFF1F88
:10177000BB1F661F771F881F91505040A9F79E3FDF
:10178000510580F00C94160B0C94610B5F3FE4F351
:10179000983ED4F3869577956795B795F795E79535
:1017A0009F5FC1F7FE2B880F911D9695879597F93E
:1017B00008950E94F20A880B990B0895991B79E00D
:1017C00004C0991F961708F0961B881F7A95C9F7D1
:1017D0008095089597FB072E16F4009407D077FDA7
:1017E00009D00E94200C07FC05D03EF4909581950D
:1017F0009F4F0895709561957F4F0895A1E21A2E2D
:10180000AA1BBB1BFD010DC0AA1FBB1FEE1FFF1FA4
:10181000A217B307E407F50720F0A21BB30BE40BF4
:10182000F50B661F771F881F991F1A9469F760953B
:101830007095809590959B01AC01BD01CF010895F5
:10184000AA1BBB1B51E107C0AA1FBB1FA617B707E6
:1018500010F0A61BB70B881F991F5A95A9F7809502
:101860009095BC01CD010895EE0FFF1F0590F491F6
:08187000E02D0994F894FFCF6C
:101878004E024E02080009000A000B000E000F007D
:101888001000110000000000EF024F027C023C0330
:10189800AD028B029F020000000081054F025D032C
:1018A8005C036E616E00696E66006F7666000D0AF5
:1018B800004348003A200020200057656C636F6D94
:1018C8006500546F00566F6C746D657465720041E5
:1018D80043204D4F44453A004143204D4F44450075
:0818E8004443204D4F4445002C
:00000001FF
